:020000040800F2
:100000007006002089010008910100089301000892
:100010009501000897010008990100080000000000
:100020000000000000000000000000009B0100082C
:100030009D010008000000009F0100086504000801
:10004000A3010008A3010008A3010008A301000800
:10005000A3010008A3010008A3010008A3010008F0
:10006000A3010008A3010008A3010008A3010008E0
:10007000A3010008A3010008A3010008A3010008D0
:10008000A3010008A3010008A3010008A3010008C0
:10009000A3010008A3010008A3010008A3010008B0
:1000A000A3010008A3010008A3010008A3010008A0
:1000B000A3010008A3010008A3010008A301000890
:1000C000A3010008A3010008A3010008A301000880
:1000D000A3010008A3010008A3010008A301000870
:1000E000A3010008A3010008A301000800F002F822
:1000F00000F03AF80AA090E8000C82448344AAF188
:100100000107DA4501D100F02FF8AFF2090EBAE885
:100110000F0013F0010F18BFFB1A43F0010318473B
:10012000F407000014080000103A24BF78C878C112
:10013000FAD8520724BF30C830C144BF04680C60ED
:10014000704700000023002400250026103A28BF35
:1001500078C1FBD8520728BF30C148BF0B60704739
:100160001FB51FBD10B510BD00F031F81146FFF7E7
:10017000F7FF00F0F3FA00F04FF803B4FFF7F2FFD7
:1001800003BC00F057F800000948804709480047C1
:10019000FEE7FEE7FEE7FEE7FEE7FEE7FEE7FEE737
:1001A000FEE7FEE704480549054A064B7047000094
:1001B000AD040008ED00000870000020700600206B
:1001C000700200207002002070477047704775462B
:1001D00000F02CF8AE4605006946534620F00700B3
:1001E000854618B020B5FFF7DDFFBDE820404FF091
:1001F00000064FF000074FF000084FF0000B21F011
:100200000701AC46ACE8C009ACE8C009ACE8C009DD
:10021000ACE8C0098D46704710B50446AFF30080C6
:100220002046BDE81040FFF7A8BF00000048704717
:100230000C00002001491820ABBEFEE7260002009A
:10024000704700002148006840F001001F49086025
:1002500000BF1E48006800200028FAD11B48006833
:1002600020F0F80040F08000184908600020486045
:1002700000BF1648406800F00C000028F9D1134870
:10028000006820F080701149086000BF0F480068C6
:1002900000F000700028F9D10C48006820F410200C
:1002A0000A49086000BF0948006800F400300028CF
:1002B000F9D10648006820F4802004490860084607
:1002C000406A40F0807048627047000000100240B1
:1002D00010B500F057F810BD2848006840F4803091
:1002E0002649086000BF2548006800200028FAD190
:1002F0002348006820F01000214908600846006883
:1003000040F0100008600846006820F00300801CE0
:1003100008601A48406820F0F00018494860084614
:10032000406820F4605048600846406820F4E0606F
:1003300040F4806048600846406820F47C1040F437
:10034000E81048600846006840F08070086000BF10
:100350000A48006800F00070B0F1007FF8D107484B
:10036000406820F00300801C0449486000BF034837
:10037000406800F00C000828F9D1704700100240D6
:10038000002002400CB50020019000903348006826
:1003900040F480303149086000BF3048006800F404
:1003A000003000900198401C0190009818B9019805
:1003B000B0F5A06FF1D12948006800F4003010B109
:1003C0000120009001E0002000900098012843D116
:1003D0002348006840F01000214908600846006882
:1003E00020F0030008600846006840F00200086042
:1003F0001A484068194948600846406848600846FD
:10040000406840F4806048600846406820F47C10F2
:1004100048600846406840F4E810486008460068B4
:1004200040F08070086000BF0C48006800F0007069
:100430000028F9D00948406820F0030007494860C7
:100440000846406840F00200486000BF034840682A
:1004500000F00C000828F9D10CBD0000001002408B
:10046000002002400448006820B103480068401E94
:100470000149086070470000040000204FF0E020B0
:10048000406900F07F40084908434FF0E02148618F
:100490000846806900F07F4088610846006940F0A6
:1004A00007000861704700003F19010010B51348AC
:1004B000006840F001001149086008464068104992
:1004C00008400E494860084600680E4908400B493C
:1004D00008600846006820F48020086008464068EC
:1004E00020F4FE0048604FF41F008860FFF7F0FE24
:1004F0004FF000600449086010BD00000010024089
:100500000000FFF8FFFFF6FE08ED00E030B5354CC7
:10051000E46944F00104334DEC61AC04218821F41A
:100520005C7121804FF6FF74AD04AC8500242C85EE
:100530002C46A48A44F00104AC822C46248824F082
:1005400080042C802C46248944F20705AC434FF0EC
:1005500080452C812C46A48B40F608052C43ED06E3
:10056000AC832C46248C24F488542C842C46208C78
:10057000A388A28B40F20334A24347F2700422EA1C
:10058000040446F26005621920F4085020F48850F3
:100590004FF08044A3802546AA830024AC87124DE7
:1005A0002C802C062084A48B40F20445AC432D07FC
:1005B000AC832C46A48824F07004AC802C4624899B
:1005C00024F080042C81074CA46944F00404054DF8
:1005D000AC61064C246824F4AA4444F42A44034D34
:1005E0002C6030BD00100240400000400008014077
:1005F00070B5564DED6945F00205544EF561544D08
:10060000298821F45C7129804FF6FF75504E2C36F5
:1006100035800025361F35804D4D14352D8845F029
:1006200001054B4E14363580494D2D8825F0800547
:10063000474E3580464D08352D8844F20706B543B0
:10064000434E08363580424D18352D8840F6080651
:1006500035433F4E18363580351D2D8840F6080647
:1006600035433B4E1C363580351D2D8841F2111621
:10067000B543374E2036358035462888344D2D1DFC
:100680002C88334D18352A882D1D2B8840F20335D0
:10069000AA43AB4347F2700522EA050546F260061D
:1006A000AA1947F2700523EA0505AB1942F2222583
:1006B000A8436D10A843264D2D1D2C80244E1836BE
:1006C0003280361D33800025214E34363580361D6C
:1006D0003580361D3580361D35801D4D20352880EE
:1006E0001B4D18352D8840F20446B543184E183678
:1006F0003580351D2D8840F20446B543144E1C3616
:100700003580134D2D1D2D8825F07005104E361D9A
:100710003580351D2D8825F08005361D35800B4D23
:10072000AD6945F00C05094EB5610A4D2D6825F0FF
:10073000AA4545F02A45074E3560074D2D6825F03E
:10074000550545F0AA05044E356070BD0010024005
:100750000004004000080140000C014008B5FFF70C
:1007600071FD6648806940F001006449886108466F
:10077000806900F00100624908606248406820F02A
:10078000E060604948600846406840F0007048609A
:10079000FFF7A2FDFFF772FEFFF7B8FE4FF08040B3
:1007A000008C40F488504FF080410884FFF720FF10
:1007B0005548008841F21111084353490880480602
:1007C000008840F00100490608804F482038008822
:1007D00040F001004C49203908808EE0002488E078
:1007E000B4F5803F03D24FF080418C8776E0B4F5BA
:1007F000803F09D3B4F5003F06D24FF6FF70001BCF
:100800004FF08041888769E0B4F5003F05D3B4F527
:10081000403F02D23D490C8060E0B4F5403F08D330
:10082000B4F5802F05D24FF6FF70001B37490880C2
:1008300054E0B4F5802F06D3B4F5A02F03D232498B
:1008400014310C804AE0B4F5A02F09D3B4F5C02FC1
:1008500006D24FF6FF70001B2B49143108803DE093
:10086000B4F5C02F06D3B4F5E02F03D226491831D2
:100870000C8033E0B4F5E02F09D3B4F5002F06D295
:100880004FF6FF70001B20491831088026E0B4F5B0
:10089000002F06D3B4F5102F03D21B491C310C8056
:1008A0001CE0B4F5102F09D3B4F5202F06D24FF673
:1008B000FF70001B14491C3108800FE0B4F5202F95
:1008C00006D3B4F5302F03D20F4920310C8005E058
:1008D0004BF6AF10001B0C49203108804B200090D4
:1008E00002E00098401E009000980028F9D100BF57
:1008F000641C07488442FFF473AF6FE700100240A6
:1009000000000020000001402004004040000040A2
:10091000B0B90B0034090008000000200C000000F2
:1009200028010008400900080C00002064060000AF
:10093000440100080000000000000000000000006A
:04000005080000ED02
:00000001FF
